:020000040000FA
:02000000562880
:040002000034003492
:0800080016288316850186010C
:1000100083128501860185150800831684308100CE
:10002000831220308B006030810009008B138B1B02
:100030001628603081000B111E200900050885017B
:100040000F398C000C168C0C031C8C110C182D28ED
:100050005120031D0D080F3936280D0E0F390319D5
:100060000A303B2086000C088500080046208600E8
:100070000C08850008008207EE342834CD346D3436
:100080002B346734E7342C34EF342F348207FE34BA
:100090003834DD347D343B347734F7343C34FF344A
:1000A0003F340D08031D08000A34312805200D20B7
:0800B00072308D001E205B2858
:02400E00703F01
:00000001FF
