:020000040000FA
:1000000083160313850186018312031307309F00B3
:1000100085018601A2010514220814208600061617
:100020003D20A20A2B200C288207EE342834CD3440
:100030006D342B346734E7342C34EF346F340034B0
:100040008207FE343834DD347D343B347734F73482
:100050003C34FF347F3423082020860006123D20E4
:100060000A3022060319A30A0A3023060319A30142
:100070000A3022060319A20108006630A100AA3046
:0C008000A000A00B4128A10B3F280800A5
:04008C000034003408
:02400E00703F01
:00000001FF
